{
  "contractName": "HashStorage",
  "abi": [
    {
      "inputs": [],
      "stateMutability": "nonpayable",
      "type": "constructor"
    },
    {
      "anonymous": false,
      "inputs": [
        {
          "indexed": false,
          "internalType": "string",
          "name": "ipfshash",
          "type": "string"
        },
        {
          "indexed": false,
          "internalType": "string",
          "name": "filehash",
          "type": "string"
        },
        {
          "indexed": false,
          "internalType": "uint256",
          "name": "dateAdded",
          "type": "uint256"
        },
        {
          "indexed": false,
          "internalType": "string",
          "name": "recipient",
          "type": "string"
        }
      ],
      "name": "HashAdded",
      "type": "event"
    },
    {
      "anonymous": false,
      "inputs": [
        {
          "indexed": true,
          "internalType": "address",
          "name": "previousOwner",
          "type": "address"
        },
        {
          "indexed": true,
          "internalType": "address",
          "name": "newOwner",
          "type": "address"
        }
      ],
      "name": "OwnershipTransferred",
      "type": "event"
    },
    {
      "inputs": [],
      "name": "isOwner",
      "outputs": [
        {
          "internalType": "bool",
          "name": "",
          "type": "bool"
        }
      ],
      "stateMutability": "view",
      "type": "function",
      "constant": true
    },
    {
      "inputs": [],
      "name": "owner",
      "outputs": [
        {
          "internalType": "address",
          "name": "",
          "type": "address"
        }
      ],
      "stateMutability": "view",
      "type": "function",
      "constant": true
    },
    {
      "inputs": [
        {
          "internalType": "address",
          "name": "newOwner",
          "type": "address"
        }
      ],
      "name": "transferOwnership",
      "outputs": [],
      "stateMutability": "nonpayable",
      "type": "function"
    },
    {
      "inputs": [
        {
          "internalType": "string",
          "name": "_ipfshash",
          "type": "string"
        },
        {
          "internalType": "string",
          "name": "_filehash",
          "type": "string"
        },
        {
          "internalType": "uint256",
          "name": "_dateAdded",
          "type": "uint256"
        },
        {
          "internalType": "string",
          "name": "recipient",
          "type": "string"
        },
        {
          "internalType": "string",
          "name": "recipient2",
          "type": "string"
        }
      ],
      "name": "add",
      "outputs": [],
      "stateMutability": "nonpayable",
      "type": "function"
    },
    {
      "inputs": [
        {
          "internalType": "string",
          "name": "_hash",
          "type": "string"
        }
      ],
      "name": "get",
      "outputs": [
        {
          "internalType": "string",
          "name": "",
          "type": "string"
        },
        {
          "internalType": "string",
          "name": "",
          "type": "string"
        },
        {
          "internalType": "uint256",
          "name": "",
          "type": "uint256"
        },
        {
          "internalType": "bool",
          "name": "",
          "type": "bool"
        }
      ],
      "stateMutability": "view",
      "type": "function",
      "constant": true
    },
    {
      "inputs": [
        {
          "internalType": "string",
          "name": "_address",
          "type": "string"
        }
      ],
      "name": "getHashFromAddress",
      "outputs": [
        {
          "internalType": "string[]",
          "name": "",
          "type": "string[]"
        },
        {
          "internalType": "string[]",
          "name": "",
          "type": "string[]"
        }
      ],
      "stateMutability": "view",
      "type": "function",
      "constant": true
    }
  ],
  "bytecode": "0x608060405234801561001057600080fd5b50336000806101000a81548173ffffffffffffffffffffffffffffffffffffffff021916908373ffffffffffffffffffffffffffffffffffffffff160217905550336000806101000a81548173ffffffffffffffffffffffffffffffffffffffff021916908373ffffffffffffffffffffffffffffffffffffffff160217905550611573806100a06000396000f3fe608060405234801561001057600080fd5b50600436106100625760003560e01c806366e434bb14610067578063693ec85e146100985780637d8dcf0b146100cb5780638da5cb5b146100e75780638f32d59b14610105578063f2fde38b14610123575b600080fd5b610081600480360381019061007c9190610dd8565b61013f565b60405161008f92919061113b565b60405180910390f35b6100b260048036038101906100ad9190610dd8565b61047b565b6040516100c2949392919061118d565b60405180910390f35b6100e560048036038101906100e09190610e19565b61058f565b005b6100ef61086c565b6040516100fc9190611120565b60405180910390f35b61010d610890565b60405161011a9190611172565b60405180910390f35b61013d60048036038101906101389190610daf565b6108e7565b005b60608060006003846040516101549190611109565b908152602001604051809103902090506000818054905067ffffffffffffffff8111156101aa577f4e487b7100000000000000000000000000000000000000000000000000000000600052604160045260246000fd5b6040519080825280602002602001820160405280156101dd57816020015b60608152602001906001900390816101c85790505b5090506000828054905067ffffffffffffffff811115610226577f4e487b7100000000000000000000000000000000000000000000000000000000600052604160045260246000fd5b60405190808252806020026020018201604052801561025957816020015b60608152602001906001900390816102445790505b50905060005b838054905081101561046c5760008482815481106102a6577f4e487b7100000000000000000000000000000000000000000000000000000000600052603260045260246000fd5b906000526020600020906005020190508060010180546102c5906113f6565b80601f01602080910402602001604051908101604052809291908181526020018280546102f1906113f6565b801561033e5780601f106103135761010080835404028352916020019161033e565b820191906000526020600020905b81548152906001019060200180831161032157829003601f168201915b505050505084838151811061037c577f4e487b7100000000000000000000000000000000000000000000000000000000600052603260045260246000fd5b6020026020010181905250806000018054610396906113f6565b80601f01602080910402602001604051908101604052809291908181526020018280546103c2906113f6565b801561040f5780601f106103e45761010080835404028352916020019161040f565b820191906000526020600020905b8154815290600101906020018083116103f257829003601f168201915b505050505083838151811061044d577f4e487b7100000000000000000000000000000000000000000000000000000000600052603260045260246000fd5b602002602001018190525050808061046490611428565b91505061025f565b50818194509450505050915091565b606080600080846002866040516104929190611109565b90815260200160405180910390206000016002876040516104b39190611109565b9081526020016040518091039020600101546002886040516104d59190611109565b908152602001604051809103902060020160009054906101000a900460ff16828054610500906113f6565b80601f016020809104026020016040519081016040528092919081815260200182805461052c906113f6565b80156105795780601f1061054e57610100808354040283529160200191610579565b820191906000526020600020905b81548152906001019060200180831161055c57829003601f168201915b5050505050925093509350935093509193509193565b610597610890565b6105d6576040517f08c379a00000000000000000000000000000000000000000000000000000000081526004016105cd9061123a565b60405180910390fd5b600015156002856040516105ea9190611109565b908152602001604051809103902060020160009054906101000a900460ff1615151461064b576040517f08c379a00000000000000000000000000000000000000000000000000000000081526004016106429061127a565b60405180910390fd5b60006040518060800160405280878152602001858152602001600115158152602001848152509050806002866040516106849190611109565b908152602001604051809103902060008201518160000190805190602001906106ae929190610a5b565b506020820151816001015560408201518160020160006101000a81548160ff02191690831515021790555060608201518160030190805190602001906106f5929190610a5b565b5090505060006040518060a0016040528088815260200187815260200186815260200160011515815260200185815250905060006003856040516107399190611109565b90815260200160405180910390209050808290806001815401808255809150506001900390600052602060002090600502016000909190919091506000820151816000019080519060200190610790929190610a5b565b5060208201518160010190805190602001906107ad929190610a5b565b506040820151816002015560608201518160030160006101000a81548160ff02191690831515021790555060808201518160040190805190602001906107f4929190610a5b565b505050806003866040516108089190611109565b9081526020016040518091039020908054610824929190610ae1565b507f070d4a16cf4bc291d49bf85cae518229a15464bdf5764d9d763d1ce3ea0b15228888888860405161085a94939291906111e0565b60405180910390a15050505050505050565b60008054906101000a900473ffffffffffffffffffffffffffffffffffffffff1681565b60008060009054906101000a900473ffffffffffffffffffffffffffffffffffffffff1673ffffffffffffffffffffffffffffffffffffffff163373ffffffffffffffffffffffffffffffffffffffff1614905090565b6108ef610890565b61092e576040517f08c379a00000000000000000000000000000000000000000000000000000000081526004016109259061123a565b60405180910390fd5b600073ffffffffffffffffffffffffffffffffffffffff168173ffffffffffffffffffffffffffffffffffffffff16141561099e576040517f08c379a00000000000000000000000000000000000000000000000000000000081526004016109959061125a565b60405180910390fd5b8073ffffffffffffffffffffffffffffffffffffffff1660008054906101000a900473ffffffffffffffffffffffffffffffffffffffff1673ffffffffffffffffffffffffffffffffffffffff167f8be0079c531659141344cd1fd0a4f28419497f9722a3daafe3b4186f6b6457e060405160405180910390a3806000806101000a81548173ffffffffffffffffffffffffffffffffffffffff021916908373ffffffffffffffffffffffffffffffffffffffff16021790555050565b828054610a67906113f6565b90600052602060002090601f016020900481019282610a895760008555610ad0565b82601f10610aa257805160ff1916838001178555610ad0565b82800160010185558215610ad0579182015b82811115610acf578251825591602001919060010190610ab4565b5b509050610add9190610bd0565b5090565b828054828255906000526020600020906005028101928215610bbf5760005260206000209160050282015b82811115610bbe5782826000820181600001908054610b2a906113f6565b610b35929190610bed565b506001820181600101908054610b4a906113f6565b610b55929190610bed565b50600282015481600201556003820160009054906101000a900460ff168160030160006101000a81548160ff0219169083151502179055506004820181600401908054610ba1906113f6565b610bac929190610bed565b50505091600501919060050190610b0c565b5b509050610bcc9190610c7a565b5090565b5b80821115610be9576000816000905550600101610bd1565b5090565b828054610bf9906113f6565b90600052602060002090601f016020900481019282610c1b5760008555610c69565b82601f10610c2c5780548555610c69565b82800160010185558215610c6957600052602060002091601f016020900482015b82811115610c68578254825591600101919060010190610c4d565b5b509050610c769190610bd0565b5090565b5b80821115610cd95760008082016000610c949190610cdd565b600182016000610ca49190610cdd565b60028201600090556003820160006101000a81549060ff0219169055600482016000610cd09190610cdd565b50600501610c7b565b5090565b508054610ce9906113f6565b6000825580601f10610cfb5750610d1a565b601f016020900490600052602060002090810190610d199190610bd0565b5b50565b6000610d30610d2b846112cb565b61129a565b905082815260208101848484011115610d4857600080fd5b610d538482856113b4565b509392505050565b600081359050610d6a8161150f565b92915050565b600082601f830112610d8157600080fd5b8135610d91848260208601610d1d565b91505092915050565b600081359050610da981611526565b92915050565b600060208284031215610dc157600080fd5b6000610dcf84828501610d5b565b91505092915050565b600060208284031215610dea57600080fd5b600082013567ffffffffffffffff811115610e0457600080fd5b610e1084828501610d70565b91505092915050565b600080600080600060a08688031215610e3157600080fd5b600086013567ffffffffffffffff811115610e4b57600080fd5b610e5788828901610d70565b955050602086013567ffffffffffffffff811115610e7457600080fd5b610e8088828901610d70565b9450506040610e9188828901610d9a565b935050606086013567ffffffffffffffff811115610eae57600080fd5b610eba88828901610d70565b925050608086013567ffffffffffffffff811115610ed757600080fd5b610ee388828901610d70565b9150509295509295909350565b6000610efc8383610f97565b905092915050565b610f0d8161136c565b82525050565b6000610f1e8261130b565b610f28818561132e565b935083602082028501610f3a856112fb565b8060005b85811015610f765784840389528151610f578582610ef0565b9450610f6283611321565b925060208a01995050600181019050610f3e565b50829750879550505050505092915050565b610f918161137e565b82525050565b6000610fa282611316565b610fac818561133f565b9350610fbc8185602086016113c3565b610fc5816114fe565b840191505092915050565b6000610fdb82611316565b610fe58185611350565b9350610ff58185602086016113c3565b610ffe816114fe565b840191505092915050565b600061101482611316565b61101e8185611361565b935061102e8185602086016113c3565b80840191505092915050565b6000611047600d83611350565b91507f4163636573732044656e696564000000000000000000000000000000000000006000830152602082019050919050565b6000611087601383611350565b91507f496e76616c6964206e65772061646472657373000000000000000000000000006000830152602082019050919050565b60006110c7601583611350565b91507f66696c6520616c72656164792075706c6f6164656400000000000000000000006000830152602082019050919050565b611103816113aa565b82525050565b60006111158284611009565b915081905092915050565b60006020820190506111356000830184610f04565b92915050565b600060408201905081810360008301526111558185610f13565b905081810360208301526111698184610f13565b90509392505050565b60006020820190506111876000830184610f88565b92915050565b600060808201905081810360008301526111a78187610fd0565b905081810360208301526111bb8186610fd0565b90506111ca60408301856110fa565b6111d76060830184610f88565b95945050505050565b600060808201905081810360008301526111fa8187610fd0565b9050818103602083015261120e8186610fd0565b905061121d60408301856110fa565b818103606083015261122f8184610fd0565b905095945050505050565b600060208201905081810360008301526112538161103a565b9050919050565b600060208201905081810360008301526112738161107a565b9050919050565b60006020820190508181036000830152611293816110ba565b9050919050565b6000604051905081810181811067ffffffffffffffff821117156112c1576112c06114cf565b5b8060405250919050565b600067ffffffffffffffff8211156112e6576112e56114cf565b5b601f19601f8301169050602081019050919050565b6000819050602082019050919050565b600081519050919050565b600081519050919050565b6000602082019050919050565b600082825260208201905092915050565b600082825260208201905092915050565b600082825260208201905092915050565b600081905092915050565b60006113778261138a565b9050919050565b60008115159050919050565b600073ffffffffffffffffffffffffffffffffffffffff82169050919050565b6000819050919050565b82818337600083830152505050565b60005b838110156113e15780820151818401526020810190506113c6565b838111156113f0576000848401525b50505050565b6000600282049050600182168061140e57607f821691505b60208210811415611422576114216114a0565b5b50919050565b6000611433826113aa565b91507fffffffffffffffffffffffffffffffffffffffffffffffffffffffffffffffff82141561146657611465611471565b5b600182019050919050565b7f4e487b7100000000000000000000000000000000000000000000000000000000600052601160045260246000fd5b7f4e487b7100000000000000000000000000000000000000000000000000000000600052602260045260246000fd5b7f4e487b7100000000000000000000000000000000000000000000000000000000600052604160045260246000fd5b6000601f19601f8301169050919050565b6115188161136c565b811461152357600080fd5b50565b61152f816113aa565b811461153a57600080fd5b5056fea2646970667358221220407bcb500adfdc2bb067ff331a3634c6aa885cf8d9b5defccaa92008b071703964736f6c63430008000033",
  "immutableReferences": {},
  "source": "// SPDX-License-Identifier: MIT\npragma solidity ^0.8.0;\npragma experimental ABIEncoderV2;\n\nimport \"./Ownable.sol\";\n\ncontract HashStorage is Ownable{\n    mapping (string => DocInfo) collection;\n    mapping (string => Info[]) addressToHash;\n\n    struct DocInfo {\n        string ipfshash;\n        uint dateAdded; //in epoch\n        bool exist;\n        string authorizedRecipients;\n    }\n\n    struct Info{\n        string ipfshash;\n        string filehash;\n        uint dateAdded; //in epoch\n        bool exist;\n        string authorizedRecipients;\n    }\n\n    event HashAdded(string ipfshash, string filehash, uint dateAdded, string recipient);\n\n    constructor () {\n        owner = msg.sender;\n    }\n\nfunction compare(string memory a, string memory b) internal pure returns (bool) {\n        if (bytes(a).length != bytes(b).length) {\n            return false;\n        }\n        for (uint i = 0; i < bytes(a).length; i ++) {\n            if(bytes(a)[i] != bytes(b)[i]) {\n                return false;\n            }\n        }\n        return true;\n    }\n\nfunction add(string memory _ipfshash,string memory _filehash,uint _dateAdded,string memory recipient,string memory recipient2) public onlyOwner {\n        //bool checkEquality = compare(recipient2,\"0xffa2d6db76c632c6fd941d3bc0254dbda9af638f\");\n        //require(checkEquality==true, \"Not authorized to access\");\n        //if(collection[_filehash].exist == true)\n        //    revert(\"already existing file\");\n        require(collection[_filehash].exist == false, \"file already uploaded\");\n        DocInfo memory docInfo = DocInfo(_ipfshash, _dateAdded, true, recipient);\n        collection[_filehash] = docInfo;\n        Info memory docInfo2 = Info(_ipfshash, _filehash, _dateAdded, true, recipient);\n        Info[] storage arr = addressToHash[recipient]; //get the existing list\n        //add to list\n        arr.push(docInfo2);\n        //add to map\n        addressToHash[recipient] = arr;\n        emit HashAdded(_ipfshash, _filehash, _dateAdded, recipient);\n    }\n\n    function get(string memory _hash) public view returns (string memory, string memory, uint, bool) {\n        return (\n            _hash,\n            collection[_hash].ipfshash,\n            collection[_hash].dateAdded,\n            collection[_hash].exist\n        );\n    }\n\n    function getHashFromAddress(string memory _address) public view returns (string[] memory , string[] memory){\n        Info[] storage arr = addressToHash[_address];\n        string[] memory filehashes = new string[](arr.length);\n        string[] memory ipfshashes = new string[](arr.length);\n       \n        for(uint i = 0;i<arr.length;i++){\n            Info storage info = arr[i];\n            filehashes[i] = info.filehash;\n            ipfshashes[i] = info.ipfshash;\n        }\n        return(filehashes, ipfshashes);\n    }\n}",
  "sourcePath": "/Users/swadhesh/Secure-File-Sharing-Blockchain/contracts/HashStorage.sol",
  "compiler": {
    "name": "solc",
    "version": "0.8.0+commit.c7dfd78e.Emscripten.clang"
  },
  "schemaVersion": "3.4.11",
  "updatedAt": "2023-02-22T07:34:51.749Z",
  "networkType": "ethereum",
  "devdoc": {
    "kind": "dev",
    "methods": {},
    "version": 1
  },
  "userdoc": {
    "kind": "user",
    "methods": {},
    "version": 1
  }
}